{
  "_format": "hh-sol-artifact-1",
  "contractName": "WavePortal",
  "sourceName": "contracts/WavePortal.sol",
  "abi": [
    {
      "inputs": [],
      "stateMutability": "payable",
      "type": "constructor"
    },
    {
      "anonymous": false,
      "inputs": [
        {
          "indexed": true,
          "internalType": "address",
          "name": "from",
          "type": "address"
        },
        {
          "indexed": false,
          "internalType": "uint256",
          "name": "timestamp",
          "type": "uint256"
        },
        {
          "indexed": false,
          "internalType": "string",
          "name": "message",
          "type": "string"
        },
        {
          "indexed": false,
          "internalType": "uint256",
          "name": "balance",
          "type": "uint256"
        }
      ],
      "name": "NewWave",
      "type": "event"
    },
    {
      "inputs": [],
      "name": "getAllWaves",
      "outputs": [
        {
          "components": [
            {
              "internalType": "address",
              "name": "waver",
              "type": "address"
            },
            {
              "internalType": "string",
              "name": "message",
              "type": "string"
            },
            {
              "internalType": "uint256",
              "name": "timestamp",
              "type": "uint256"
            },
            {
              "internalType": "uint256",
              "name": "balance",
              "type": "uint256"
            }
          ],
          "internalType": "struct WavePortal.Wave[]",
          "name": "",
          "type": "tuple[]"
        }
      ],
      "stateMutability": "view",
      "type": "function"
    },
    {
      "inputs": [],
      "name": "getContractBalance",
      "outputs": [
        {
          "internalType": "uint256",
          "name": "",
          "type": "uint256"
        }
      ],
      "stateMutability": "view",
      "type": "function"
    },
    {
      "inputs": [],
      "name": "getTotalWaves",
      "outputs": [
        {
          "internalType": "uint256",
          "name": "",
          "type": "uint256"
        }
      ],
      "stateMutability": "view",
      "type": "function"
    },
    {
      "inputs": [
        {
          "internalType": "address",
          "name": "",
          "type": "address"
        }
      ],
      "name": "lastWavedAt",
      "outputs": [
        {
          "internalType": "uint256",
          "name": "",
          "type": "uint256"
        }
      ],
      "stateMutability": "view",
      "type": "function"
    },
    {
      "inputs": [
        {
          "internalType": "uint256",
          "name": "balance",
          "type": "uint256"
        }
      ],
      "name": "setContractBalance",
      "outputs": [],
      "stateMutability": "nonpayable",
      "type": "function"
    },
    {
      "inputs": [
        {
          "internalType": "string",
          "name": "_message",
          "type": "string"
        }
      ],
      "name": "wave",
      "outputs": [],
      "stateMutability": "nonpayable",
      "type": "function"
    }
  ],
  "bytecode": "0x60806040526200004f6040518060400160405280601981526020017f57652068617665206265656e20636f6e737472756374656421000000000000008152506200008860201b620007091760201c565b606444426200005f9190620001df565b6200006b91906200027c565b60028190555062000082476200012b60201b60201c565b62000323565b62000128816040516024016200009f91906200019f565b6040516020818303038152906040527f41304fac000000000000000000000000000000000000000000000000000000007bffffffffffffffffffffffffffffffffffffffffffffffffffffffff19166020820180517bffffffffffffffffffffffffffffffffffffffffffffffffffffffff83818316178352505050506200013560201b60201c565b50565b8060008190555050565b60008151905060006a636f6e736f6c652e6c6f679050602083016000808483855afa5050505050565b60006200016b82620001c3565b620001778185620001ce565b93506200018981856020860162000246565b620001948162000312565b840191505092915050565b60006020820190508181036000830152620001bb81846200015e565b905092915050565b600081519050919050565b600082825260208201905092915050565b6000620001ec826200023c565b9150620001f9836200023c565b9250827fffffffffffffffffffffffffffffffffffffffffffffffffffffffffffffffff03821115620002315762000230620002b4565b5b828201905092915050565b6000819050919050565b60005b838110156200026657808201518184015260208101905062000249565b8381111562000276576000848401525b50505050565b600062000289826200023c565b915062000296836200023c565b925082620002a957620002a8620002e3565b5b828206905092915050565b7f4e487b7100000000000000000000000000000000000000000000000000000000600052601160045260246000fd5b7f4e487b7100000000000000000000000000000000000000000000000000000000600052601260045260246000fd5b6000601f19601f8301169050919050565b61125a80620003336000396000f3fe608060405234801561001057600080fd5b50600436106100625760003560e01c80633210520e14610067578063449d46c0146100835780636f9fb98a1461009f5780639a2cdc08146100bd578063a42a4663146100db578063bd43a9081461010b575b600080fd5b610081600480360381019061007c9190610a9f565b610129565b005b61009d60048036038101906100989190610a5e565b610133565b005b6100a7610583565b6040516100b49190610dd7565b60405180910390f35b6100c561058c565b6040516100d29190610dd7565b60405180910390f35b6100f560048036038101906100f09190610a35565b610596565b6040516101029190610dd7565b60405180910390f35b6101136105ae565b6040516101209190610d03565b60405180910390f35b8060008190555050565b426000600460003373ffffffffffffffffffffffffffffffffffffffff1673ffffffffffffffffffffffffffffffffffffffff168152602001908152602001600020546101809190610ef7565b106101c0576040517f08c379a00000000000000000000000000000000000000000000000000000000081526004016101b790610d77565b60405180910390fd5b42600460003373ffffffffffffffffffffffffffffffffffffffff1673ffffffffffffffffffffffffffffffffffffffff1681526020019081526020016000208190555060018060008282546102169190610ef7565b9250508190555061025c6040518060400160405280600d81526020017f2573206861732077617665642100000000000000000000000000000000000000815250336107a2565b600360405180608001604052803373ffffffffffffffffffffffffffffffffffffffff1681526020018381526020014281526020013373ffffffffffffffffffffffffffffffffffffffff1631815250908060018154018082558091505060019003906000526020600020906004020160009091909190915060008201518160000160006101000a81548173ffffffffffffffffffffffffffffffffffffffff021916908373ffffffffffffffffffffffffffffffffffffffff1602179055506020820151816001019080519060200190610338929190610900565b5060408201518160020155606082015181600301555050606460025442446103609190610ef7565b61036a9190610ef7565b610374919061102e565b60028190555061038560025461083e565b6032600254116104cf576103ce6040518060400160405280600781526020017f257320776f6e2100000000000000000000000000000000000000000000000000815250336107a2565b6000655af3107a400090504781111561041c576040517f08c379a000000000000000000000000000000000000000000000000000000000815260040161041390610db7565b60405180910390fd5b60003373ffffffffffffffffffffffffffffffffffffffff168260405161044290610cee565b60006040518083038185875af1925050503d806000811461047f576040519150601f19603f3d011682016040523d82523d6000602084013e610484565b606091505b50509050806104c8576040517f08c379a00000000000000000000000000000000000000000000000000000000081526004016104bf90610d97565b60405180910390fd5b505061050e565b61050d6040518060400160405280600481526020017f6c6f736500000000000000000000000000000000000000000000000000000000815250610709565b5b3373ffffffffffffffffffffffffffffffffffffffff167f3e113f502ff7c90598a6182f87f699985e9c373d089ba56a11d88a26891c5c8b42833373ffffffffffffffffffffffffffffffffffffffff163160405161056f93929190610df2565b60405180910390a261058047610129565b50565b60008054905090565b6000600154905090565b60046020528060005260406000206000915090505481565b60606003805480602002602001604051908101604052809291908181526020016000905b8282101561070057838290600052602060002090600402016040518060800160405290816000820160009054906101000a900473ffffffffffffffffffffffffffffffffffffffff1673ffffffffffffffffffffffffffffffffffffffff1673ffffffffffffffffffffffffffffffffffffffff16815260200160018201805461065b90610fcb565b80601f016020809104026020016040519081016040528092919081815260200182805461068790610fcb565b80156106d45780601f106106a9576101008083540402835291602001916106d4565b820191906000526020600020905b8154815290600101906020018083116106b757829003601f168201915b5050505050815260200160028201548152602001600382015481525050815260200190600101906105d2565b50505050905090565b61079f8160405160240161071d9190610d25565b6040516020818303038152906040527f41304fac000000000000000000000000000000000000000000000000000000007bffffffffffffffffffffffffffffffffffffffffffffffffffffffff19166020820180517bffffffffffffffffffffffffffffffffffffffffffffffffffffffff83818316178352505050506108d7565b50565b61083a82826040516024016107b8929190610d47565b6040516020818303038152906040527f319af333000000000000000000000000000000000000000000000000000000007bffffffffffffffffffffffffffffffffffffffffffffffffffffffff19166020820180517bffffffffffffffffffffffffffffffffffffffffffffffffffffffff83818316178352505050506108d7565b5050565b6108d4816040516024016108529190610dd7565b6040516020818303038152906040527ff5b1bba9000000000000000000000000000000000000000000000000000000007bffffffffffffffffffffffffffffffffffffffffffffffffffffffff19166020820180517bffffffffffffffffffffffffffffffffffffffffffffffffffffffff83818316178352505050506108d7565b50565b60008151905060006a636f6e736f6c652e6c6f679050602083016000808483855afa5050505050565b82805461090c90610fcb565b90600052602060002090601f01602090048101928261092e5760008555610975565b82601f1061094757805160ff1916838001178555610975565b82800160010185558215610975579182015b82811115610974578251825591602001919060010190610959565b5b5090506109829190610986565b5090565b5b8082111561099f576000816000905550600101610987565b5090565b60006109b66109b184610e55565b610e30565b9050828152602081018484840111156109ce57600080fd5b6109d9848285610f89565b509392505050565b6000813590506109f0816111f6565b92915050565b600082601f830112610a0757600080fd5b8135610a178482602086016109a3565b91505092915050565b600081359050610a2f8161120d565b92915050565b600060208284031215610a4757600080fd5b6000610a55848285016109e1565b91505092915050565b600060208284031215610a7057600080fd5b600082013567ffffffffffffffff811115610a8a57600080fd5b610a96848285016109f6565b91505092915050565b600060208284031215610ab157600080fd5b6000610abf84828501610a20565b91505092915050565b6000610ad48383610c6d565b905092915050565b610ae581610f4d565b82525050565b610af481610f4d565b82525050565b6000610b0582610e96565b610b0f8185610eb9565b935083602082028501610b2185610e86565b8060005b85811015610b5d5784840389528151610b3e8582610ac8565b9450610b4983610eac565b925060208a01995050600181019050610b25565b50829750879550505050505092915050565b6000610b7a82610ea1565b610b848185610ed5565b9350610b94818560208601610f98565b610b9d8161111b565b840191505092915050565b6000610bb382610ea1565b610bbd8185610ee6565b9350610bcd818560208601610f98565b610bd68161111b565b840191505092915050565b6000610bee600f83610ee6565b9150610bf98261112c565b602082019050919050565b6000610c11602783610ee6565b9150610c1c82611155565b604082019050919050565b6000610c34603583610ee6565b9150610c3f826111a4565b604082019050919050565b6000610c57600083610eca565b9150610c62826111f3565b600082019050919050565b6000608083016000830151610c856000860182610adc565b5060208301518482036020860152610c9d8282610b6f565b9150506040830151610cb26040860182610cd0565b506060830151610cc56060860182610cd0565b508091505092915050565b610cd981610f7f565b82525050565b610ce881610f7f565b82525050565b6000610cf982610c4a565b9150819050919050565b60006020820190508181036000830152610d1d8184610afa565b905092915050565b60006020820190508181036000830152610d3f8184610ba8565b905092915050565b60006040820190508181036000830152610d618185610ba8565b9050610d706020830184610aeb565b9392505050565b60006020820190508181036000830152610d9081610be1565b9050919050565b60006020820190508181036000830152610db081610c04565b9050919050565b60006020820190508181036000830152610dd081610c27565b9050919050565b6000602082019050610dec6000830184610cdf565b92915050565b6000606082019050610e076000830186610cdf565b8181036020830152610e198185610ba8565b9050610e286040830184610cdf565b949350505050565b6000610e3a610e4b565b9050610e468282610ffd565b919050565b6000604051905090565b600067ffffffffffffffff821115610e7057610e6f6110ec565b5b610e798261111b565b9050602081019050919050565b6000819050602082019050919050565b600081519050919050565b600081519050919050565b6000602082019050919050565b600082825260208201905092915050565b600081905092915050565b600082825260208201905092915050565b600082825260208201905092915050565b6000610f0282610f7f565b9150610f0d83610f7f565b9250827fffffffffffffffffffffffffffffffffffffffffffffffffffffffffffffffff03821115610f4257610f4161105f565b5b828201905092915050565b6000610f5882610f5f565b9050919050565b600073ffffffffffffffffffffffffffffffffffffffff82169050919050565b6000819050919050565b82818337600083830152505050565b60005b83811015610fb6578082015181840152602081019050610f9b565b83811115610fc5576000848401525b50505050565b60006002820490506001821680610fe357607f821691505b60208210811415610ff757610ff66110bd565b5b50919050565b6110068261111b565b810181811067ffffffffffffffff82111715611025576110246110ec565b5b80604052505050565b600061103982610f7f565b915061104483610f7f565b9250826110545761105361108e565b5b828206905092915050565b7f4e487b7100000000000000000000000000000000000000000000000000000000600052601160045260246000fd5b7f4e487b7100000000000000000000000000000000000000000000000000000000600052601260045260246000fd5b7f4e487b7100000000000000000000000000000000000000000000000000000000600052602260045260246000fd5b7f4e487b7100000000000000000000000000000000000000000000000000000000600052604160045260246000fd5b6000601f19601f8301169050919050565b7f57616974203330207365636f6e64730000000000000000000000000000000000600082015250565b7f4661696c656420746f207769746864726177206d6f6e65792066726f6d20636f60008201527f6e74726163742e00000000000000000000000000000000000000000000000000602082015250565b7f547279696e6720746f207769746864726177206d6f7265206d6f6e657920746860008201527f616e207468657920636f6e7472616374206861732e0000000000000000000000602082015250565b50565b6111ff81610f4d565b811461120a57600080fd5b50565b61121681610f7f565b811461122157600080fd5b5056fea2646970667358221220011b8c6bb18a8fc9ea5bc64c9f67add7d13be4efa5b5332efb9af74aa9cbe22364736f6c63430008040033",
  "linkReferences": {},
  "deployedLinkReferences": {}
}